:10000000020089802A8C228D2330CF02800280F961
:10001000C2CFD290800CE52324FFF523E52234FFE4
:10002000F522E52345227002800280EAC2902280F8
:10003000D4804075200575212375800075A000755A
:1000400090FE75CB8675CA8653C8FCD2ADD2AFD2AE
:10005000CAE580B4010875200275210E800BE5A069
:10006000B40106752005752123AC20AD21120003D3
:1000700080DF2280BEE4F5D0758124F520F521F5DE
:0C00800022F5231200310200000200757E
:00000001FF
