:1000000002009D80338C278D288013758C27758A7C
:1000100010D28C208D02800280F9C28DC28CAC2758
:10002000E528FD152870021527ED24FFEC648034C7
:100030007F4002800280D42280CB804B758901757D
:100040002200752348752407752530752680852282
:10005000907C007D64120003792387907C007D648E
:10006000120003792487907C007D641200037925B7
:1000700087907C017D2C120003792687907C017D7E
:10008000F412000380C82280B3E4F5D0758129788A
:10009000207A09F608DAFC12003A02000002008910
:00000001FF
