:10000000020058898288838B00EC4D6036E4E0F66C
:1000100008A31DBDFFF31C80F0B800118B00EC4D50
:100020006021E7F609081DBDFFF41C80F189828874
:10003000838B00EC4D600CE493F608A31DBDFFF329
:100040001C80F022E4F5D075813C78207A1CF608FB
:0B005000DAFC12011202000002004462
:10010000B8A5A1BCABA9AE00B3A9ADAFB5A4AA0078
:100110002000020308E4F528F529780179007A0027
:100120007B2A7D087C00120019780179087A007B0F
:10013000327D087C00120019753A00753B00800280
:10014000053A742AA93A780029F9E770F380020584
:100150003B7432A93B780029F9E770F375800C7580
:10016000A00175A00075803875A00175A000E53A62
:10017000C313F97800748AC399F529740098F52897
:1001800085298075A00175A000E4F520F521801572
:10019000742A2521F9878075A00375A0020521E541
:1001A0002170020520A93A7800E8B52006E9B521BA
:1001B0000280065002800280D7E4F522F523020275
:1001C0004B7580C075A00175A000E4F526F5278069
:1001D000127410F58075A00375A0020527E527703D
:1001E000020526E522B52607E523B527028006503D
:1001F00002800280DCE4F520F521802FE521B405A2
:1002000007E520B400028002800C792B878075A05E
:100210000375A002800D74322521F9878075A00333
:1002200075A0020521E52170020520A93B7800E8B0
:10023000B52006E9B5210280065002800280BDE5A6
:10024000232402F523E5223400F522E53B2523FD96
:10025000E43522FCED24EBEC34FF50028003020174
:10026000C10202F57580C075A00175A000E4F526F5
:10027000F52780127410F58075A00375A00205277C
:10028000E52770020526E522B52607E523B52702F6
:1002900080065002800280DCE4F520F521802FE505
:1002A00021B40507E520B400028002800C792B8779
:1002B0008075A00375A002800D74322521F9878016
:1002C00075A00375A0020521E521700205207414B4
:1002D000C39523FD74009522FCECB52006EDB521F5
:1002E0000280065002800280B6E5232402F523E551
:1002F000223400F522E52324EBE52234FF5002806E
:0B030000030202640201B92202011591
:00000001FF
