:10000000020094804920000280028004D200800215
:10001000C2008014758000D280D28180207580005B
:10002000D282D28380178015A200E4FE33FF8008BD
:10003000EF60E11460E78005EE60F58000D000D04D
:1000400001D006D007D083D082D0E0D0D032C0D04B
:10005000C0E0C082C083C007C006C001C00080A548
:100060008022C200C288D2A8D2AF758000D280D2CE
:1000700081D2B68590A0800020B702800280F9C2AC
:10008000B680EE2280DCE4F5D0758121F5201200E7
:07009000600200000200867F
:00000001FF
