:1000000002012180108D998D248000309902800298
:1000100080F9C2992280EE801F53877F5389BF5396
:1000200089EF438920758DFAD28E759800D29BC2D4
:100030009CC29DD29EC29F2280DF02010A752200CF
:100040007523607443852283852382F0746885223A
:1000500083852382A3F07465852283852382A3A3ED
:10006000F07462852283852382A3A3A3F07479852B
:100070002283852382A3A3A3A3F0746B85228385A7
:100080002382A3A3A3A3A3F0E5232406F582E522FC
:100090003400F5837469F0E5232407F582E5223402
:1000A00000F583746EF0E5232408F582E522340020
:1000B000F5837454F0E5232409F582E5223400F534
:1000C000837453F0120017E4F520F521E52124F69E
:1000D000E5206480347F5002800280028029E5217F
:1000E0002523F582E5203522F583E0FD1200030586
:1000F00021E52170020520E52124F6E52064803405
:100100007F5002800280D780BE2202003DE4F5D0FD
:1001100075812578207A05F608DAFC12003A02008B
:040120000002010DCB
:00000001FF
