:100000000200DD0200C675220175234078017900E7
:100010007A007B247D057C001201D4780179057A71
:10002000007B297D057C001201D47801790A7A00D1
:100030007B2E7D207C001201D4752000E52024FC5D
:10004000500280028002807A7429A920780029F960
:1000500087B0752100E52124FC50028002800280D7
:10006000557424A921780029F9E7B5903D758038A9
:1000700075A00175A00075808075A00175A000E5D0
:100080002175F004A42520500205F0A8F0A9E0E9AC
:10009000C333F9E833F8742E29F98783098782126C
:1000A000014BF58075A00375A0020521E52124FC14
:1000B0005002800280AB0520E52024FC5002800223
:1000C000808602003922020006E4F5D075814E7860
:1000D000207A2EF608DAFC1200030200000200C9A2
:10010000FEFDFBF7001E1D1B170001320130012E02
:1001100001470138013601340145013E013C013AF5
:100120000149012A0141012C014343003D003900EE
:10013000380037003600350034003300320031001B
:100140003030002F002D002B002A00E5836003E4EF
:100150009322A882E622E5836004E4938003A882C8
:10016000E6F822E5836004E4938003A882E6F9229E
:10017000E5836004E4938003A882E6FA22E58360C5
:1001800004E4938003A882E6FB22E5836004E49301
:100190008003A882E6FC22E5836004E4938003A840
:1001A00082E6FD22E5836004E4938003A882E6FEF4
:1001B00022E5836004E4938003A882E6FF2289821B
:1001C00088838B00EC4D6036E4E0F608A31DBDFF8C
:1001D000F31C80F0B800118B00EC4D6021E7F609AC
:1001E000081DBDFFF41C80F1898288838B00EC4DD3
:0F01F000600CE493F608A31DBDFFF31C80F02202
:00000001FF
